:100000000C945C000C9479000C9479000C947900A9
:100010000C9479000C9479000C9479000C9479007C
:100020000C9479000C9479000C9479000C9479006C
:100030000C9479000C9479000C9479000C9479005C
:100040000C940B010C9479000C9479000C947900B9
:100050000C9479000C9479000C9479000C9479003C
:100060000C9479000C947900000000080002010053
:100070000003040700000000000000000000000072
:10008000250028002B0000000000240027002A0083
:10009000040404040404040402020202020203032E
:1000A0000303030301020408102040800102040836
:1000B000102001020408102011241FBECFEFD8E049
:1000C000DEBFCDBF11E0A0E0B1E0E6E1F4E002C0A8
:1000D00005900D92A430B107D9F721E0A4E0B1E07A
:1000E00001C01D92AE30B207E1F70E9455010C9499
:1000F00009020C94000090E0FC01EC55FF4F2491A4
:1001000080579F4FFC018491882399F090E0880FDD
:10011000991FFC01EA57FF4FA591B491FC01E458E7
:10012000FF4F859194918FB7F894EC91E22BEC936B
:100130008FBF089590E0FC01E859FF4F2491FC0126
:10014000EC55FF4F3491FC01E057FF4FE491EE2353
:10015000C9F0222339F0233001F1A8F4213019F13C
:10016000223029F1F0E0EE0FFF1FE458FF4FA59178
:10017000B4918FB7F894EC91611126C030953E236D
:100180003C938FBF08952730A9F02830C9F0243060
:1001900049F7809180008F7D03C0809180008F7728
:1001A00080938000DFCF84B58F7784BDDBCF84B5AB
:1001B0008F7DFBCF8091B0008F778093B000D2CF3E
:1001C0008091B0008F7DF9CF3E2BDACF3FB7F89406
:1001D0008091090190910A01A0910B01B0910C014D
:1001E00026B5A89B05C02F3F19F00196A11DB11D92
:1001F0003FBFBA2FA92F982F8827BC01CD01620FCE
:10020000711D811D911D42E0660F771F881F991F88
:100210004A95D1F708951F920F920FB60F921124AD
:100220002F933F938F939F93AF93BF93809105013B
:1002300090910601A0910701B0910801309104014D
:1002400023E0230F2D3758F50196A11DB11D2093F2
:1002500004018093050190930601A0930701B093D8
:1002600008018091090190910A01A0910B01B091C0
:100270000C010196A11DB11D8093090190930A0103
:10028000A0930B01B0930C01BF91AF919F918F91FF
:100290003F912F910F900FBE0F901F90189526E859
:1002A000230F0296A11DB11DD2CF789484B5826030
:1002B00084BD84B5816084BD85B5826085BD85B50A
:1002C000816085BD80916E00816080936E00109288
:1002D0008100809181008260809381008091810003
:1002E0008160809381008091800081608093800094
:1002F0008091B10084608093B1008091B0008160F2
:100300008093B00080917A00846080937A0080911D
:100310007A00826080937A0080917A008160809375
:100320007A0080917A00806880937A001092C100F0
:1003300080E00E947B0081E00E947B0082E00E94BE
:100340007B0001E010E020E0E22E20E0F22E10928F
:100350000D01D0910D01D23008F054C08D2F90E0E6
:10036000FC01E050FF4FC081C095CF70029698010C
:1003700002C0220F331F8A95E2F7C22B60E080E0B3
:100380000E949A0098E0B92E6C2F617082E00E9462
:100390009A00C69561E081E00E949A0060E081E0E9
:1003A0000E949A00BA94B110EFCF61E080E00E9401
:1003B0009A000E94E6002B013C0184EF882E9924CC
:1003C0009394A12CB12C0E94E6006419750986094A
:1003D0009709683E734081059105A8F331E0831ABF
:1003E0009108A108B10888EE480E83E0581E611CF0
:1003F000711C81149104A104B10429F7DF5FD0932B
:100400000D01A7CFE114F10409F4A1CF0E9400006F
:060410009ECFF894FFCF1F
:040416000103070FC8
:00000001FF
