:020000040800F2
:1000000070060020350200081F0D0008910C000842
:100010001D0D00082B040008F91300080000000063
:10002000000000000000000000000000230D000898
:100030002D04000800000000210D000859120008DE
:100040004F0200084F0200084F0200084F0200084C
:100050004F0200084F0200084F0200084F0200083C
:100060004F0200084F0200084F0200084F0200082C
:100070004F0200084F0200084F0200084F0200081C
:100080004F0200084F0200084F0200080000000065
:100090000000000000000000000000004F02000807
:1000A0004F0200084F0200084F0200084F020008EC
:1000B0004F0200084F0200084F0200084F020008DC
:1000C0004F0200084F0200084F0200084F020008CC
:1000D0004F0200084F0200084F0200080000000015
:1000E0004F0200084F0200084F0200080000000005
:1000F0000000000000000000000000004F020008A7
:10010000000000004F0200084F0200084F020008E4
:1001100000000000000000000000000000000000DF
:100120004F0200084F0200084F0200084F0200086B
:100130004F02000800000000000000000000000066
:100140000000000000000000000000004F02000856
:100150004F0200084F0200084F0200084F0200083B
:100160004F0200084F0200080000000000000000DD
:10017000000000000000000000000000000000007F
:10018000000000004F020008000000000000000016
:100190004F02000800F002F800F03CF80AA090E8D6
:1001A000000C82448344AAF10107DA4501D100F032
:1001B00031F8AFF2090EBAE80F0013F0010F18BFC3
:1001C000FB1A43F001031847B0120000D0120000E0
:1001D000103A24BF78C878C1FAD8520724BF30C873
:1001E00030C144BF04680C60704700000023002445
:1001F00000250026103A28BF78C1FBD8520728BF37
:1002000030C148BF0B6070471FB501F027F91FBD13
:1002100010B510BD00F0CFF81146FFF7F5FF01F063
:10022000FCF800F0EDF803B4FFF7F2FF03BC00F0B8
:10023000F5F800000948804709480047FEE7FEE757
:10024000FEE7FEE7FEE7FEE7FEE7FEE7FEE7FEE786
:1002500004480549054A064B70470000E1120008B2
:100260009501000870000020700600207002002038
:100270007002002053EA020C00F069802DE9F04B77
:100280004FF00006002B1FBFB3FA83F503FA05F405
:1002900024FA05F65E4012BF1643B2FA82F502FA5E
:1002A00005F4C5F120051EBF22FA05FC44EA0C0442
:1002B000203556EA044C4FEA144418BF641C4FF032
:1002C00000084FF00009904271EB030C39D300296C
:1002D00019BFB1FA81F701FA07F6B0FA80F700FA10
:1002E00007F6C7F120071EBF20FA07FC46EA0C06F6
:1002F0002037B6FBF4FCA7EB0507103F07F01F0BF8
:10030000CBF120060CFA0BFB2CFA06F644BFB346E1
:100310000026202FA4BF5E464FF0000B5BEA060CC0
:1003200008BF4FF0010B19EB0B09ABFB027C48EB4C
:100330000608C01B06FB02CC0BFB03CC71EB0C01C7
:10034000C1E70B46024641464846BDE8F08B13B56F
:100350004FF000004FF00001AFF30080BDE81C40FB
:1003600070474FF0000200B5134694469646203978
:1003700022BFA0E80C50A0E80C50B1F12001BFF45E
:10038000F7AF090728BFA0E80C5048BF0CC05DF8C4
:1003900004EB890028BF40F8042B08BF704748BF12
:1003A00020F8022B11F0804F18BF00F8012B704786
:1003B000704770477047754600F02CF8AE46050050
:1003C0006946534620F00700854618B020B5FFF770
:1003D0003FFFBDE820404FF000064FF000074FF010
:1003E00000084FF0000B21F00701AC46ACE8C00953
:1003F000ACE8C009ACE8C009ACE8C0098D4670475C
:1004000010B50446AFF300802046BDE81040FFF76A
:100410000ABF000000487047100000200149182062
:10042000ABBEFEE7260002007047FEE77047000003
:1004300070B5044600F004F90546601C02D004487B
:100440000078044400F0FCF8401BA042FAD370BDD1
:10045000000000202DE9F84FDFF8B8A100220124A8
:100460000AF1040B03254FF00F090BF1040E00BF36
:100470000B6804FA02F63340B34273D10F7907F0E8
:100480000307012F01D0022F16D187684FEA4208D7
:1004900005FA08FC27EA0C07D1F80CC00CFA08FC96
:1004A0004CEA070CC0F808C04768B7430E79C6F39A
:1004B000001696403E4346600E79F643B6070DD0CF
:1004C000C768560005FA06FC27EA0C07D1F808C0F1
:1004D0000CFA06FC4CEA070CC0F80CC00E7906F0CA
:1004E0000306022E10D1D60800EB8608D8F820604B
:1004F00057074FEAD76C09FA0CF7BE430F6907FAA2
:100500000CF73743C8F8207006684FEA420C05FA2A
:100510000CF7BE430F7907F0030707FA0CF73743D0
:1005200007604E6816F4403F6DD03B4E376847F485
:1005300080473760366822F0030706F4804600964D
:10054000364E07EB060CDCF8086897073F0F09FAF0
:1005500007F826EA0806DFF8C880404503D14FF0C7
:1005600000081EE04FE0DFF8BC80404502D14FF0AC
:10057000010816E0DFF8B080404502D14FF00208D4
:100580000FE0DFF8A880404502D14FF0030808E0F3
:10059000DFF89C80404502D14FF0040801E04FF0A5
:1005A000070808FA07F848EA0608CCF80888DAF8D5
:1005B00000605746D1F804C09E435FEACC3C00D5AA
:1005C0001E433E60DBF800605F46D1F804C09E43E6
:1005D0005FEA8C3C00D51E433E60DEF80060774643
:1005E000D1F804C09E435FEACC2C00D51E433E6088
:1005F000084F0C373E68D1F804C09E435FEA8C2C4C
:1006000000D51E433E60521C102AFFF431AFBDE8F6
:10061000F88F0000003C01404438024000300140A7
:10062000000002400004024000080240000C0240AA
:10063000001002400AB1816170470904FBE7000025
:10064000014880687047000000000020024881686F
:100650000278114481607047000000200B4810B5FB
:10066000016841F400710160016841F4806101603A
:10067000016841F480710160032000F061F80F20EF
:1006800000F006F800F024F8002010BD003C024005
:1006900070B50D4D04464FF47A712878B1FBF0F037
:1006A0000A490968B1FBF0F000F0DEFA48B9102CF5
:1006B00007D200222146501E00F022F800206C6074
:1006C00070BD012070BD0000000000200C00002063
:1006D0000A4808B5016841F480410160006800F4EF
:1006E000804000900548001F016841F08051016082
:1006F000006800F08050009008BD000044380240BF
:10070000F0B40E4B1B680C46C3F30223C3F107057C
:10071000042D00D90425191D072901D2002300E06A
:10072000DB1E012606FA05F1491E214099409E4034
:10073000761E16403143F0BC00F05FBE0CED00E0C9
:10074000064900F0070208684FF6FF03184040EA28
:100750000220034A10430860704700000CED00E0DF
:100760000000FA052DE9F0470E46050065D0DFF8D8
:100770001481D8F80000F7B200F00700B04207D2A9
:1007800088F80070D8F8000000F00700B04254D19B
:1007900028683D4C810712D5400703D5206840F4F6
:1007A000E05020602878000703D5206840F46040BE
:1007B00020602068A96820F0F000084320602878B5
:1007C000C0072DD0304968680839012812D00228A6
:1007D00013D0032811D00968890700292DDA216870
:1007E00021F0030101432160FFF72AFF814641F216
:1007F000883A0EE009688903EFE709688901ECE7A8
:10080000FFF71EFFA0EB0901514502D90320BDE807
:10081000F0872068696800F00C00B0EB810FEFD121
:10082000D8F80010404601F00701B14207D907701F
:10083000006800F00700B04201D00120E7E7287807
:10084000400705D52068E96820F4E050084320609F
:100850002878000706D52068296920F4604040EA1E
:10086000C100206000F018F82168084AC1F30311A4
:10087000515CC8400649086006480068FFF708FF59
:100880000020C4E7003C024008380240661400081B
:100890000C00002004000020154810B5006810F07E
:1008A0000C02144813D01449042A0FD0082A0ED180
:1008B0000F4C241F2268236802F03F025B0207D519
:1008C0002068C0F38810A0FB010106E0084610BDB7
:1008D0002168C1F38811A1FB00010023FFF7CAFCC6
:1008E0002168C1F30141491C4900B0FBF1F010BD82
:1008F000083802400024F40040787D012DE9F84FCB
:1009000004006ED02078DFF84C93C007A9F10405ED
:100910004AD009F104000168C1F38101012908D01E
:100920000068C0F3810002280AD1D9F80000400213
:1009300006D52868800337D560680028E1D033E009
:100940006068B0F5803F10D0B0F5A02F286810D0B7
:1009500020F480302860286820F4802028606068B7
:10096000A8B1FFF76DFE06460DE0286840F4803020
:10097000F4E740F480202860F7E700BFFFF760FE4F
:10098000801B642873D828688003F7D50CE0FFF734
:1009900057FE064605E000BFFFF752FE801B6428A5
:1009A000F0D828688003F7D42078DFF8AC8280077D
:1009B0004FF0000A3ED5A748001D016811F00C0F4A
:1009C00008D00068C0F3810002280BD1D9F80000DC
:1009D000400207D42868800716D5E068012800D1B6
:1009E00012E033E1E068B8B10120C8F80000FFF779
:1009F00027FE064605E000BFFFF722FE801B022807
:100A0000C0D828688007F7D52868216920F0F80049
:100A100040EAC10028600DE0C8F800A0FFF710FE12
:100A2000064604E0FFF70CFE801B02281FD828684A
:100A30008007F7D42078000722D5864F8748616960
:100A4000703771B101210160FFF7FAFD064604E03D
:100A5000FFF7F6FD801B022809D838688007F7D514
:100A60000EE0C0F800A0FFF7EBFD064605E082E0CF
:100A7000FFF7E6FD801B02287DD838688007F7D491
:100A80002078400768D5DFF8CCB100270BF13C0B8C
:100A9000DBF80000C0000BD4DBF8001041F08051FF
:100AA000CBF80010DBF80000012700F08050009028
:100AB0006B4E3068C00510D4306840F480703060F0
:100AC000FFF7BEFD009005E0FFF7BAFD0099401A60
:100AD000022850D83068C005F6D55E4EA0686C3646
:100AE00001280FD00528306810D020F001003060B8
:100AF000306820F004003060A068B8B1FFF7A0FDB6
:100B000000900FE0306840F00100F4E740F004008E
:100B10003060F7E7FFF794FD0099411A41F2883001
:100B2000814266D830688007F4D50EE0FFF788FD73
:100B3000009007E0FFF784FD0099411A41F28830E8
:100B4000814256D830688007F4D42FB1DBF800100A
:100B500021F08051CBF80010A069C8B33D49091DB0
:100B60000968C1F3810102294AD00228504607D002
:100B7000C8F8600000E03CE0FFF762FD04463BE09F
:100B80004746C8F86000FFF75BFD064605E000BF7A
:100B9000FFF756FD801B02282BD828688001F7D468
:100BA000D4E907010843A16A2E4A490802EB014132
:100BB000626A41EA8211084394F82C1040EA01610C
:100BC000C9F8001001203866FFF73AFD044606E038
:100BD0003EE000BFFFF734FD001B022809D828685B
:100BE0008001F7D534E000BFFFF72AFD001B022883
:100BF00002D90320BDE8F88F28688001F4D427E0EB
:100C00000128F7D0D9F80000E26900F48001914290
:100C10001CD1226A00F03F01914217D147F6C07102
:100C2000626A0140B1EB821F10D1A26A4FF0FF331C
:100C300000F4403103EB5202B1EB024F06D194F8BD
:100C40002C1000F07060B0EB016F01D00120D1E7F3
:100C50000020CFE70438024000004742800E4742A0
:100C6000007000400000FFFF10B5401EB0F1807F13
:100C700001D3012010BD4FF0E02460610F21601707
:100C800000F0BBFB0020A06107202061002010BD08
:100C9000FEE700002DE9F04186B014216846FFF719
:100CA00060FB1B480024016841F0100101600168ED
:100CB00001F010010591016841F008010160006830
:100CC000144F00F0080005902246FF213846FFF738
:100CD000B1FCDFF844804FF6FF76002231464046F3
:100CE000FFF7A8FCFF2000900125CDE901546946DB
:100CF00038460394FFF7AEFB0096CDE901546946F0
:100D000040460394FFF7A6FB06B0BDE8F081000063
:100D10003038024000100240000C0240FEE7FEE7BF
:100D20007047704710B53E4C012211462046FFF730
:100D300081FC012202212046FFF77CFC01220421D4
:100D40002046FFF777FC012208212046FFF772FCBE
:100D5000012210212046FFF76DFC012220212046B0
:100D6000FFF768FC012240212046FFF763FC0122C7
:100D700080212046FFF75EFC012211022046FFF78A
:100D800059FC012251022046FFF754FC0122910236
:100D90002046FFF74FFC0122D1022046FFF74AFC14
:100DA000012211032046FFF745FC01225103204692
:100DB000FFF740FC012291032046FFF73BFC012294
:100DC000D1032046FFF736FC164C0122114620467F
:100DD000FFF730FC012202212046FFF72BFC012205
:100DE00004212046FFF726FC012208212046FFF7B8
:100DF00021FC012210212046FFF71CFC01222021AA
:100E00002046FFF717FC012240212046FFF712FC85
:100E100020460122BDE810408021FFF70BBC0000F6
:100E2000000C02400010024010B500F061FA624C64
:100E3000012211462046FFF7FDFB6420FFF7F8FA78
:100E4000012202212046FFF7F5FB6420FFF7F0FAAC
:100E5000012204212046FFF7EDFB6420FFF7E8FAAA
:100E6000012208212046FFF7E5FB6420FFF7E0FAA6
:100E7000012210212046FFF7DDFB6420FFF7D8FA9E
:100E8000012220212046FFF7D5FB6420FFF7D0FA8E
:100E9000012240212046FFF7CDFB6420FFF7C8FA6E
:100EA000012280212046FFF7C5FB6420FFF7C0FA2E
:100EB000012211022046FFF7BDFB6420FFF7B8FABC
:100EC000012251022046FFF7B5FB6420FFF7B0FA7C
:100ED000012291022046FFF7ADFB6420FFF7A8FA3C
:100EE0000122D1022046FFF7A5FB6420FFF7A0FAFC
:100EF000012211032046FFF79DFB6420FFF798FABB
:100F0000012251032046FFF795FB6420FFF790FA7A
:100F1000012291032046FFF78DFB6420FFF788FA3A
:100F20000122D1032046FFF785FB6420FFF780FAFA
:100F3000224C012211462046FFF77CFB6420FFF77C
:100F400077FA012202212046FFF774FB6420FFF7A5
:100F50006FFA012204212046FFF76CFB6420FFF7A3
:100F600067FA012208212046FFF764FB6420FFF79F
:100F70005FFA012210212046FFF75CFB6420FFF797
:100F800057FA012220212046FFF754FB6420FFF787
:100F90004FFA012240212046FFF74CFB6420FFF767
:100FA00047FA012280212046FFF744FBBDE81040AC
:100FB0006420FFF73DBA0000000C02400010024020
:100FC00070B500F095F9A24C012211462046FFF7BA
:100FD00031FB6420FFF72CFA002201212046FFF7A5
:100FE00029FB012202212046FFF724FB6420FFF7A2
:100FF0001FFA002202212046FFF71CFB01220421D8
:101000002046FFF717FB6420FFF712FA00220421A5
:101010002046FFF70FFB012208212046FFF70AFBBD
:101020006420FFF705FA002208212046FFF702FBA3
:10103000012210212046FFF7FDFA6420FFF7F8F99E
:10104000002210212046FFF7F5FA01222021204638
:10105000FFF7F0FA6420FFF7EBF900222021204689
:10106000FFF7E8FA012240212046FFF7E3FA642067
:10107000FFF7DEF9002240212046FFF7DBFA0122CC
:1010800080212046FFF7D6FA6420FFF7D1F900222D
:1010900080212046FFF7CEFA01221502294620467C
:1010A000FFF7C8FA6420FFF7C3F90022294620465B
:1010B000FFF7C0FA0122550229462046FFF7BAFA87
:1010C0006420FFF7B5F9002229462046FFF7B2FA5F
:1010D0000122950229462046FFF7ACFA6420FFF76B
:1010E000A7F9002229462046FFF7A4FA0122D502DB
:1010F00029462046FFF79EFA6420FFF799F900225F
:1011000029462046FFF796FA012215032946204674
:10111000FFF790FA6420FFF78BF90022294620465A
:10112000FFF788FA0122550329462046FFF782FA85
:101130006420FFF77DF9002229462046FFF77AFA5E
:101140000122950329462046FFF774FA6420FFF731
:101150006FF9002229462046FFF76CFA0122D503D9
:1011600029462046FFF766FA6420FFF761F900225E
:1011700029462046FFF75EFA364C012211462046EA
:10118000FFF758FA6420FFF753F9002201212046A7
:10119000FFF750FA012202212046FFF74BFA6420A4
:1011A000FFF746F9002202212046FFF743FA012209
:1011B00004212046FFF73EFA6420FFF739F90022A8
:1011C00004212046FFF736FA012208212046FFF7C6
:1011D00031FA6420FFF72CF9002208212046FFF79E
:1011E00029FA012210212046FFF724FA6420FFF794
:1011F0001FF9002210212046FFF71CFA01222021AE
:101200002046FFF717FA6420FFF712F90022202189
:101210002046FFF70FFA012240212046FFF70AFA85
:101220006420FFF705F9002240212046FFF702FA6B
:10123000012280212046FFF7FDF96420FFF7F8F82E
:101240002046BDE8704000228021FFF7F3B900007E
:10125000000C024000100240FFF7F8B910B592B040
:1012600030216846FFF77DF814210CA8FFF779F8C4
:1012700019480024016841F080510160006800F0C5
:10128000805011901548016821F4404141F400411B
:1012900001600068069400F4404011900220009024
:1012A00001200390102004906846FFF727FB08B147
:1012B00072B6FEE70F20CDE90C048020CDE90E04C4
:1012C00000210CA81094FFF74DFA002801D072B647
:1012D000FEE712B010BD0000403802400070004030
:1012E0000248016841F470010160704788ED00E038
:1012F00010B53F4C002201212046FFF79BF9002248
:1013000002212046FFF796F9002204212046FFF72C
:1013100091F9002208212046FFF78CF900221021C4
:101320002046FFF787F9002220212046FFF782F9A7
:10133000002240212046FFF77DF90022802120462F
:10134000FFF778F90022A1152046FFF773F9002274
:1013500061152046FFF76EF9002221152046FFF7A0
:1013600069F90022E1142046FFF764F90022A11474
:101370002046FFF75FF900224FF400512046FFF7A7
:1013800059F900224FF480412046FFF753F900221B
:101390004FF400412046FFF74DF9164C0022012181
:1013A0002046FFF747F9002202212046FFF742F9C5
:1013B000002204212046FFF73DF9002208212046A3
:1013C000FFF738F9002210212046FFF733F90022F9
:1013D00020212046FFF72EF9002240212046FFF76A
:1013E00029F920460022BDE810408021FFF722B9EC
:1013F000000C024000100240FEE70907090E002819
:1014000004DB00F1E02080F80014704700F00F00CA
:1014100000F1E02080F8141D7047FFF71FF9FFF777
:101420001DFFFFF737FC4FF47A74FFF77BFC204673
:10143000FEF7FEFFFFF75CFF2046FEF7F9FFFFF720
:10144000F3FCFFF755FF2046FEF7F2FFFFF7B8FD6C
:10145000FFF74EFF2046FEF7EBFFE6E74FF0407048
:10146000E1EE100A704700000000000000000102D9
:101470000304060708090000981400080000002073
:1014800010000000D0010008A8140008100000207F
:1014900060060000EC0100080100000010000000E0
:0814A000000000000024F4002C
:040000050800019559
:00000001FF
