:100000000C945C000C9479000C9479000C947900A9
:100010000C9479000C9479000C9479000C9479007C
:100020000C9479000C9479000C9479000C9479006C
:100030000C9479000C9479000C9479000C9479005C
:100040000C9462010C9479000C9479000C94790062
:100050000C9479000C9479000C9479000C9479003C
:100060000C9479000C947900000000080002010053
:100070000003040700000000000000000000000072
:10008000250028002B0000000000240027002A0083
:10009000040404040404040402020202020203032E
:1000A0000303030301020408102040800102040836
:1000B000102001020408102011241FBECFEFD8E049
:1000C000DEBFCDBF11E0A0E0B1E0ECEEF4E002C095
:1000D00005900D92A431B107D9F721E0A4E1B1E078
:1000E00001C01D92A132B207E1F70E94AC010C944D
:1000F00074020C94000090E0FC01EC55FF4F249139
:1001000080579F4FFC018491882399F090E0880FDD
:10011000991FFC01EA57FF4FA591B491FC01E458E7
:10012000FF4F859194918FB7F894EC91E22BEC936B
:100130008FBF089590E0FC01E859FF4F2491FC0126
:10014000EC55FF4F3491FC01E057FF4FE491EE2353
:10015000C9F0222339F0233001F1A8F4213019F13C
:10016000223029F1F0E0EE0FFF1FE458FF4FA59178
:10017000B4918FB7F894EC91611126C030953E236D
:100180003C938FBF08952730A9F02830C9F0243060
:1001900049F7809180008F7D03C0809180008F7728
:1001A00080938000DFCF84B58F7784BDDBCF84B5AB
:1001B0008F7DFBCF8091B0008F778093B000D2CF3E
:1001C0008091B0008F7DF9CF3E2BDACF3FB7F89406
:1001D0008091190190911A01A0911B01B0911C010D
:1001E00026B5A89B05C02F3F19F00196A11DB11D92
:1001F0003FBFBA2FA92F982F8827BC01CD01620FCE
:10020000711D811D911D42E0660F771F881F991F88
:100210004A95D1F708958F929F92AF92BF92CF9255
:10022000DF92EF92FF920E94E6004B015C018AE0B0
:10023000C82ED12CE12CF12C0E94E6006819790916
:100240008A099B09683E734081059105A8F321E066
:10025000C21AD108E108F10888EE880E83E0981EE2
:10026000A11CB11CC114D104E104F10429F7FF90D1
:10027000EF90DF90CF90BF90AF909F908F900895B8
:100280000F931F93CF93DF93C2E0D0E0880F991FA5
:10029000FC01E050FF4F00811181CE010297B801AF
:1002A00002C0759567958A95E2F761708C2F0E9460
:1002B0009A002196C930D10581F7DF91CF911F9126
:1002C0000F9108951F920F920FB60F9211242F9342
:1002D0003F938F939F93AF93BF938091150190911C
:1002E0001601A0911701B09118013091140123E07B
:1002F000230F2D3758F50196A11DB11D2093140130
:100300008093150190931601A0931701B0931801E3
:100310008091190190911A01A0911B01B0911C01CB
:100320000196A11DB11D8093190190931A01A0930C
:100330001B01B0931C01BF91AF919F918F913F9191
:100340002F910F900FBE0F901F90189526E8230F46
:100350000296A11DB11DD2CF789484B5826084BD70
:1003600084B5816084BD85B5826085BD85B58160B9
:1003700085BD80916E00816080936E001092810037
:1003800080918100826080938100809181008160F2
:1003900080938100809180008160809380008091B3
:1003A000B10084608093B1008091B000816080933F
:1003B000B00080917A00846080937A0080917A0006
:1003C000826080937A0080917A00816080937A00C5
:1003D00080917A00806880937A001092C10082E058
:1003E0000E947B0083E00E947B0084E00E947B00EF
:1003F00085E00E947B0086E00E947B0087E00E94EF
:100400007B0088E00E947B008CE00E947B008DE0F6
:100410000E947B009AE0C92ED12C20E0A22E20E081
:10042000B22ED0E0C0E0CE01B6010E944C027B01AA
:100430008C017093200160931F0190931E018093A3
:100440001D0184E1882E912C61E08CE00E949A00CD
:1004500060E08DE00E949A00C7010E9440010E9466
:100460000B0161E08DE00E949A0060E08CE00E9448
:100470009A00C8010E9440010E940B0181E0881A85
:10048000910811F72196C436D10569F6A114B1047B
:1004900041F20E940000C5CF97FB072E16F400948E
:1004A00007D077FD09D00E94600207FC05D03EF41A
:1004B000909581959F4F0895709561957F4F089510
:1004C000AA1BBB1B51E107C0AA1FBB1FA617B7077A
:1004D00010F0A61BB70B881F991F5A95A9F7809596
:0C04E0009095BC01CD010895F894FFCF69
:1004EC003F0006005B004F0066006D007D000700BA
:0404FC007F006F000E
:00000001FF
